{
    "_format": "hh-sol-artifact-1",
    "contractName": "AkaraCarbon",
    "sourceName": "contracts/AkaraCarbon.sol",
    "abi": [
        {
            "inputs": [
                {
                    "internalType": "address",
                    "name": "initialOwner",
                    "type": "address"
                }
            ],
            "stateMutability": "nonpayable",
            "type": "constructor"
        },
        {
            "inputs": [
                {
                    "internalType": "address",
                    "name": "sender",
                    "type": "address"
                },
                {
                    "internalType": "uint256",
                    "name": "balance",
                    "type": "uint256"
                },
                {
                    "internalType": "uint256",
                    "name": "needed",
                    "type": "uint256"
                },
                {
                    "internalType": "uint256",
                    "name": "tokenId",
                    "type": "uint256"
                }
            ],
            "name": "ERC1155InsufficientBalance",
            "type": "error"
        },
        {
            "inputs": [
                {
                    "internalType": "address",
                    "name": "approver",
                    "type": "address"
                }
            ],
            "name": "ERC1155InvalidApprover",
            "type": "error"
        },
        {
            "inputs": [
                {
                    "internalType": "uint256",
                    "name": "idsLength",
                    "type": "uint256"
                },
                {
                    "internalType": "uint256",
                    "name": "valuesLength",
                    "type": "uint256"
                }
            ],
            "name": "ERC1155InvalidArrayLength",
            "type": "error"
        },
        {
            "inputs": [
                {
                    "internalType": "address",
                    "name": "operator",
                    "type": "address"
                }
            ],
            "name": "ERC1155InvalidOperator",
            "type": "error"
        },
        {
            "inputs": [
                {
                    "internalType": "address",
                    "name": "receiver",
                    "type": "address"
                }
            ],
            "name": "ERC1155InvalidReceiver",
            "type": "error"
        },
        {
            "inputs": [
                {
                    "internalType": "address",
                    "name": "sender",
                    "type": "address"
                }
            ],
            "name": "ERC1155InvalidSender",
            "type": "error"
        },
        {
            "inputs": [
                {
                    "internalType": "address",
                    "name": "operator",
                    "type": "address"
                },
                {
                    "internalType": "address",
                    "name": "owner",
                    "type": "address"
                }
            ],
            "name": "ERC1155MissingApprovalForAll",
            "type": "error"
        },
        {
            "inputs": [
                {
                    "internalType": "address",
                    "name": "owner",
                    "type": "address"
                }
            ],
            "name": "OwnableInvalidOwner",
            "type": "error"
        },
        {
            "inputs": [
                {
                    "internalType": "address",
                    "name": "account",
                    "type": "address"
                }
            ],
            "name": "OwnableUnauthorizedAccount",
            "type": "error"
        },
        {
            "anonymous": false,
            "inputs": [
                {
                    "indexed": true,
                    "internalType": "address",
                    "name": "account",
                    "type": "address"
                },
                {
                    "indexed": true,
                    "internalType": "address",
                    "name": "operator",
                    "type": "address"
                },
                {
                    "indexed": false,
                    "internalType": "bool",
                    "name": "approved",
                    "type": "bool"
                }
            ],
            "name": "ApprovalForAll",
            "type": "event"
        },
        {
            "anonymous": false,
            "inputs": [
                {
                    "indexed": true,
                    "internalType": "address",
                    "name": "previousOwner",
                    "type": "address"
                },
                {
                    "indexed": true,
                    "internalType": "address",
                    "name": "newOwner",
                    "type": "address"
                }
            ],
            "name": "OwnershipTransferred",
            "type": "event"
        },
        {
            "anonymous": false,
            "inputs": [
                {
                    "indexed": false,
                    "internalType": "uint256",
                    "name": "tokenId",
                    "type": "uint256"
                }
            ],
            "name": "TokenMinted",
            "type": "event"
        },
        {
            "anonymous": false,
            "inputs": [
                {
                    "indexed": true,
                    "internalType": "address",
                    "name": "operator",
                    "type": "address"
                },
                {
                    "indexed": true,
                    "internalType": "address",
                    "name": "from",
                    "type": "address"
                },
                {
                    "indexed": true,
                    "internalType": "address",
                    "name": "to",
                    "type": "address"
                },
                {
                    "indexed": false,
                    "internalType": "uint256[]",
                    "name": "ids",
                    "type": "uint256[]"
                },
                {
                    "indexed": false,
                    "internalType": "uint256[]",
                    "name": "values",
                    "type": "uint256[]"
                }
            ],
            "name": "TransferBatch",
            "type": "event"
        },
        {
            "anonymous": false,
            "inputs": [
                {
                    "indexed": true,
                    "internalType": "address",
                    "name": "operator",
                    "type": "address"
                },
                {
                    "indexed": true,
                    "internalType": "address",
                    "name": "from",
                    "type": "address"
                },
                {
                    "indexed": true,
                    "internalType": "address",
                    "name": "to",
                    "type": "address"
                },
                {
                    "indexed": false,
                    "internalType": "uint256",
                    "name": "id",
                    "type": "uint256"
                },
                {
                    "indexed": false,
                    "internalType": "uint256",
                    "name": "value",
                    "type": "uint256"
                }
            ],
            "name": "TransferSingle",
            "type": "event"
        },
        {
            "anonymous": false,
            "inputs": [
                {
                    "indexed": false,
                    "internalType": "string",
                    "name": "value",
                    "type": "string"
                },
                {
                    "indexed": true,
                    "internalType": "uint256",
                    "name": "id",
                    "type": "uint256"
                }
            ],
            "name": "URI",
            "type": "event"
        },
        {
            "inputs": [
                {
                    "internalType": "address",
                    "name": "account",
                    "type": "address"
                },
                {
                    "internalType": "uint256",
                    "name": "id",
                    "type": "uint256"
                }
            ],
            "name": "balanceOf",
            "outputs": [
                {
                    "internalType": "uint256",
                    "name": "",
                    "type": "uint256"
                }
            ],
            "stateMutability": "view",
            "type": "function"
        },
        {
            "inputs": [
                {
                    "internalType": "address[]",
                    "name": "accounts",
                    "type": "address[]"
                },
                {
                    "internalType": "uint256[]",
                    "name": "ids",
                    "type": "uint256[]"
                }
            ],
            "name": "balanceOfBatch",
            "outputs": [
                {
                    "internalType": "uint256[]",
                    "name": "",
                    "type": "uint256[]"
                }
            ],
            "stateMutability": "view",
            "type": "function"
        },
        {
            "inputs": [
                {
                    "internalType": "uint256",
                    "name": "tokenId",
                    "type": "uint256"
                }
            ],
            "name": "destoryExpired",
            "outputs": [],
            "stateMutability": "nonpayable",
            "type": "function"
        },
        {
            "inputs": [
                {
                    "internalType": "uint256",
                    "name": "id",
                    "type": "uint256"
                }
            ],
            "name": "exists",
            "outputs": [
                {
                    "internalType": "bool",
                    "name": "",
                    "type": "bool"
                }
            ],
            "stateMutability": "view",
            "type": "function"
        },
        {
            "inputs": [
                {
                    "internalType": "address",
                    "name": "account",
                    "type": "address"
                },
                {
                    "internalType": "address",
                    "name": "operator",
                    "type": "address"
                }
            ],
            "name": "isApprovedForAll",
            "outputs": [
                {
                    "internalType": "bool",
                    "name": "",
                    "type": "bool"
                }
            ],
            "stateMutability": "view",
            "type": "function"
        },
        {
            "inputs": [
                {
                    "internalType": "uint256",
                    "name": "tokenId",
                    "type": "uint256"
                }
            ],
            "name": "isExpired",
            "outputs": [
                {
                    "internalType": "bool",
                    "name": "",
                    "type": "bool"
                }
            ],
            "stateMutability": "view",
            "type": "function"
        },
        {
            "inputs": [
                {
                    "internalType": "uint256",
                    "name": "amount",
                    "type": "uint256"
                },
                {
                    "internalType": "bytes",
                    "name": "data",
                    "type": "bytes"
                },
                {
                    "internalType": "uint256",
                    "name": "expiryTimestamp",
                    "type": "uint256"
                }
            ],
            "name": "mint",
            "outputs": [
                {
                    "internalType": "uint256",
                    "name": "",
                    "type": "uint256"
                }
            ],
            "stateMutability": "nonpayable",
            "type": "function"
        },
        {
            "inputs": [
                {
                    "internalType": "address",
                    "name": "to",
                    "type": "address"
                },
                {
                    "internalType": "uint256[]",
                    "name": "ids",
                    "type": "uint256[]"
                },
                {
                    "internalType": "uint256[]",
                    "name": "amounts",
                    "type": "uint256[]"
                },
                {
                    "internalType": "bytes",
                    "name": "data",
                    "type": "bytes"
                }
            ],
            "name": "mintBatch",
            "outputs": [],
            "stateMutability": "nonpayable",
            "type": "function"
        },
        {
            "inputs": [],
            "name": "owner",
            "outputs": [
                {
                    "internalType": "address",
                    "name": "",
                    "type": "address"
                }
            ],
            "stateMutability": "view",
            "type": "function"
        },
        {
            "inputs": [],
            "name": "ownerAddress",
            "outputs": [
                {
                    "internalType": "address",
                    "name": "",
                    "type": "address"
                }
            ],
            "stateMutability": "view",
            "type": "function"
        },
        {
            "inputs": [],
            "name": "renounceOwnership",
            "outputs": [],
            "stateMutability": "nonpayable",
            "type": "function"
        },
        {
            "inputs": [
                {
                    "internalType": "address",
                    "name": "from",
                    "type": "address"
                },
                {
                    "internalType": "address",
                    "name": "to",
                    "type": "address"
                },
                {
                    "internalType": "uint256[]",
                    "name": "ids",
                    "type": "uint256[]"
                },
                {
                    "internalType": "uint256[]",
                    "name": "values",
                    "type": "uint256[]"
                },
                {
                    "internalType": "bytes",
                    "name": "data",
                    "type": "bytes"
                }
            ],
            "name": "safeBatchTransferFrom",
            "outputs": [],
            "stateMutability": "nonpayable",
            "type": "function"
        },
        {
            "inputs": [
                {
                    "internalType": "address",
                    "name": "from",
                    "type": "address"
                },
                {
                    "internalType": "address",
                    "name": "to",
                    "type": "address"
                },
                {
                    "internalType": "uint256",
                    "name": "id",
                    "type": "uint256"
                },
                {
                    "internalType": "uint256",
                    "name": "value",
                    "type": "uint256"
                },
                {
                    "internalType": "bytes",
                    "name": "data",
                    "type": "bytes"
                }
            ],
            "name": "safeTransferFrom",
            "outputs": [],
            "stateMutability": "nonpayable",
            "type": "function"
        },
        {
            "inputs": [
                {
                    "internalType": "address",
                    "name": "operator",
                    "type": "address"
                },
                {
                    "internalType": "bool",
                    "name": "approved",
                    "type": "bool"
                }
            ],
            "name": "setApprovalForAll",
            "outputs": [],
            "stateMutability": "nonpayable",
            "type": "function"
        },
        {
            "inputs": [
                {
                    "internalType": "bytes4",
                    "name": "interfaceId",
                    "type": "bytes4"
                }
            ],
            "name": "supportsInterface",
            "outputs": [
                {
                    "internalType": "bool",
                    "name": "",
                    "type": "bool"
                }
            ],
            "stateMutability": "view",
            "type": "function"
        },
        {
            "inputs": [
                {
                    "internalType": "uint256",
                    "name": "",
                    "type": "uint256"
                }
            ],
            "name": "tokens",
            "outputs": [
                {
                    "internalType": "uint256",
                    "name": "expiry",
                    "type": "uint256"
                }
            ],
            "stateMutability": "view",
            "type": "function"
        },
        {
            "inputs": [],
            "name": "totalSupply",
            "outputs": [
                {
                    "internalType": "uint256",
                    "name": "",
                    "type": "uint256"
                }
            ],
            "stateMutability": "view",
            "type": "function"
        },
        {
            "inputs": [
                {
                    "internalType": "uint256",
                    "name": "id",
                    "type": "uint256"
                }
            ],
            "name": "totalSupply",
            "outputs": [
                {
                    "internalType": "uint256",
                    "name": "",
                    "type": "uint256"
                }
            ],
            "stateMutability": "view",
            "type": "function"
        },
        {
            "inputs": [
                {
                    "internalType": "address",
                    "name": "newOwner",
                    "type": "address"
                }
            ],
            "name": "transferOwnership",
            "outputs": [],
            "stateMutability": "nonpayable",
            "type": "function"
        },
        {
            "inputs": [
                {
                    "internalType": "uint256",
                    "name": "",
                    "type": "uint256"
                }
            ],
            "name": "uri",
            "outputs": [
                {
                    "internalType": "string",
                    "name": "",
                    "type": "string"
                }
            ],
            "stateMutability": "view",
            "type": "function"
        }
    ],
    "bytecode": "0x6080604052600060065534801561001557600080fd5b5060405161323d38038061323d83398181016040528101906100379190610266565b80604051806060016040528060348152602001613209603491396100608161012a60201b60201c565b50600073ffffffffffffffffffffffffffffffffffffffff168173ffffffffffffffffffffffffffffffffffffffff16036100d35760006040517f1e4fbdf70000000000000000000000000000000000000000000000000000000081526004016100ca91906102a2565b60405180910390fd5b6100e28161013d60201b60201c565b5080600760006101000a81548173ffffffffffffffffffffffffffffffffffffffff021916908373ffffffffffffffffffffffffffffffffffffffff160217905550506105df565b8060029081610139919061050d565b5050565b6000600360009054906101000a900473ffffffffffffffffffffffffffffffffffffffff16905081600360006101000a81548173ffffffffffffffffffffffffffffffffffffffff021916908373ffffffffffffffffffffffffffffffffffffffff1602179055508173ffffffffffffffffffffffffffffffffffffffff168173ffffffffffffffffffffffffffffffffffffffff167f8be0079c531659141344cd1fd0a4f28419497f9722a3daafe3b4186f6b6457e060405160405180910390a35050565b600080fd5b600073ffffffffffffffffffffffffffffffffffffffff82169050919050565b600061023382610208565b9050919050565b61024381610228565b811461024e57600080fd5b50565b6000815190506102608161023a565b92915050565b60006020828403121561027c5761027b610203565b5b600061028a84828501610251565b91505092915050565b61029c81610228565b82525050565b60006020820190506102b76000830184610293565b92915050565b600081519050919050565b7f4e487b7100000000000000000000000000000000000000000000000000000000600052604160045260246000fd5b7f4e487b7100000000000000000000000000000000000000000000000000000000600052602260045260246000fd5b6000600282049050600182168061033e57607f821691505b602082108103610351576103506102f7565b5b50919050565b60008190508160005260206000209050919050565b60006020601f8301049050919050565b600082821b905092915050565b6000600883026103b97fffffffffffffffffffffffffffffffffffffffffffffffffffffffffffffffff8261037c565b6103c3868361037c565b95508019841693508086168417925050509392505050565b6000819050919050565b6000819050919050565b600061040a610405610400846103db565b6103e5565b6103db565b9050919050565b6000819050919050565b610424836103ef565b61043861043082610411565b848454610389565b825550505050565b600090565b61044d610440565b61045881848461041b565b505050565b5b8181101561047c57610471600082610445565b60018101905061045e565b5050565b601f8211156104c15761049281610357565b61049b8461036c565b810160208510156104aa578190505b6104be6104b68561036c565b83018261045d565b50505b505050565b600082821c905092915050565b60006104e4600019846008026104c6565b1980831691505092915050565b60006104fd83836104d3565b9150826002028217905092915050565b610516826102bd565b67ffffffffffffffff81111561052f5761052e6102c8565b5b6105398254610326565b610544828285610480565b600060209050601f8311600181146105775760008415610565578287015190505b61056f85826104f1565b8655506105d7565b601f19841661058586610357565b60005b828110156105ad57848901518255600182019150602085019450602081019050610588565b868310156105ca57848901516105c6601f8916826104d3565b8355505b6001600288020188555050505b505050505050565b612c1b806105ee6000396000f3fe608060405234801561001057600080fd5b506004361061012b5760003560e01c80635dd73748116100ad578063bd85b03911610071578063bd85b03914610354578063d9548e5314610384578063e985e9c5146103b4578063f242432a146103e4578063f2fde38b146104005761012b565b80635dd73748146102d6578063715018a6146102f25780638da5cb5b146102fc5780638f84aa091461031a578063a22cb465146103385761012b565b80632e87871d116100f45780632e87871d146101fa5780632eb2c2d61461022a5780634e1273f4146102465780634f558e79146102765780634f64b2be146102a65761012b565b8062fdd58e1461013057806301ffc9a7146101605780630e89341c1461019057806318160ddd146101c05780631f7fdffa146101de575b600080fd5b61014a60048036038101906101459190611d91565b61041c565b6040516101579190611de0565b60405180910390f35b61017a60048036038101906101759190611e53565b610476565b6040516101879190611e9b565b60405180910390f35b6101aa60048036038101906101a59190611eb6565b610558565b6040516101b79190611f73565b60405180910390f35b6101c86105ec565b6040516101d59190611de0565b60405180910390f35b6101f860048036038101906101f39190612192565b6105f6565b005b610214600480360381019061020f919061224d565b610610565b6040516102219190611de0565b60405180910390f35b610244600480360381019061023f91906122bc565b610716565b005b610260600480360381019061025b919061244e565b6107be565b60405161026d9190612584565b60405180910390f35b610290600480360381019061028b9190611eb6565b6108c7565b60405161029d9190611e9b565b60405180910390f35b6102c060048036038101906102bb9190611eb6565b6108db565b6040516102cd9190611de0565b60405180910390f35b6102f060048036038101906102eb9190611eb6565b6108f9565b005b6102fa6109bf565b005b6103046109d3565b60405161031191906125b5565b60405180910390f35b6103226109fd565b60405161032f91906125b5565b60405180910390f35b610352600480360381019061034d91906125fc565b610a23565b005b61036e60048036038101906103699190611eb6565b610a39565b60405161037b9190611de0565b60405180910390f35b61039e60048036038101906103999190611eb6565b610a56565b6040516103ab9190611e9b565b60405180910390f35b6103ce60048036038101906103c9919061263c565b610a78565b6040516103db9190611e9b565b60405180910390f35b6103fe60048036038101906103f9919061267c565b610b0c565b005b61041a60048036038101906104159190612713565b610bb4565b005b600080600083815260200190815260200160002060008473ffffffffffffffffffffffffffffffffffffffff1673ffffffffffffffffffffffffffffffffffffffff16815260200190815260200160002054905092915050565b60007fd9b67a26000000000000000000000000000000000000000000000000000000007bffffffffffffffffffffffffffffffffffffffffffffffffffffffff1916827bffffffffffffffffffffffffffffffffffffffffffffffffffffffff1916148061054157507f0e89341c000000000000000000000000000000000000000000000000000000007bffffffffffffffffffffffffffffffffffffffffffffffffffffffff1916827bffffffffffffffffffffffffffffffffffffffffffffffffffffffff1916145b80610551575061055082610c3a565b5b9050919050565b6060600280546105679061276f565b80601f01602080910402602001604051908101604052809291908181526020018280546105939061276f565b80156105e05780601f106105b5576101008083540402835291602001916105e0565b820191906000526020600020905b8154815290600101906020018083116105c357829003601f168201915b50505050509050919050565b6000600554905090565b6105fe610ca4565b61060a84848484610d2b565b50505050565b600061061a610ca4565b42821161065c576040517f08c379a0000000000000000000000000000000000000000000000000000000008152600401610653906127ec565b60405180910390fd5b6000600660008154809291906106719061283b565b91905055905060405180602001604052808481525060086000838152602001908152602001600020600082015181600001559050506106d4600760009054906101000a900473ffffffffffffffffffffffffffffffffffffffff16828787610db1565b7ff00d28232b285f24f2e38415deb2ceb31069e70d4505838b3911b4f02058502e816040516107039190611de0565b60405180910390a1809150509392505050565b6000610720610e4a565b90508073ffffffffffffffffffffffffffffffffffffffff168673ffffffffffffffffffffffffffffffffffffffff161415801561076557506107638682610a78565b155b156107a95780866040517fe237d9220000000000000000000000000000000000000000000000000000000081526004016107a0929190612883565b60405180910390fd5b6107b68686868686610e52565b505050505050565b6060815183511461080a57815183516040517f5b0599910000000000000000000000000000000000000000000000000000000081526004016108019291906128ac565b60405180910390fd5b6000835167ffffffffffffffff81111561082757610826611f9a565b5b6040519080825280602002602001820160405280156108555781602001602082028036833780820191505090505b50905060005b84518110156108bc5761089261087a8287610f4a90919063ffffffff16565b61088d8387610f5e90919063ffffffff16565b61041c565b8282815181106108a5576108a46128d5565b5b60200260200101818152505080600101905061085b565b508091505092915050565b6000806108d383610a39565b119050919050565b60086020528060005260406000206000915090508060000154905081565b61090281610a56565b610941576040517f08c379a000000000000000000000000000000000000000000000000000000000815260040161093890612950565b60405180910390fd5b600061094d338361041c565b905060008111610992576040517f08c379a0000000000000000000000000000000000000000000000000000000008152600401610989906129bc565b60405180910390fd5b61099d338383610f72565b6008600083815260200190815260200160002060008082016000905550505050565b6109c7610ca4565b6109d16000611019565b565b6000600360009054906101000a900473ffffffffffffffffffffffffffffffffffffffff16905090565b600760009054906101000a900473ffffffffffffffffffffffffffffffffffffffff1681565b610a35610a2e610e4a565b83836110df565b5050565b600060046000838152602001908152602001600020549050919050565b6000426008600084815260200190815260200160002060000154109050919050565b6000600160008473ffffffffffffffffffffffffffffffffffffffff1673ffffffffffffffffffffffffffffffffffffffff16815260200190815260200160002060008373ffffffffffffffffffffffffffffffffffffffff1673ffffffffffffffffffffffffffffffffffffffff16815260200190815260200160002060009054906101000a900460ff16905092915050565b6000610b16610e4a565b90508073ffffffffffffffffffffffffffffffffffffffff168673ffffffffffffffffffffffffffffffffffffffff1614158015610b5b5750610b598682610a78565b155b15610b9f5780866040517fe237d922000000000000000000000000000000000000000000000000000000008152600401610b96929190612883565b60405180910390fd5b610bac868686868661124f565b505050505050565b610bbc610ca4565b600073ffffffffffffffffffffffffffffffffffffffff168173ffffffffffffffffffffffffffffffffffffffff1603610c2e5760006040517f1e4fbdf7000000000000000000000000000000000000000000000000000000008152600401610c2591906125b5565b60405180910390fd5b610c3781611019565b50565b60007f01ffc9a7000000000000000000000000000000000000000000000000000000007bffffffffffffffffffffffffffffffffffffffffffffffffffffffff1916827bffffffffffffffffffffffffffffffffffffffffffffffffffffffff1916149050919050565b610cac610e4a565b73ffffffffffffffffffffffffffffffffffffffff16610cca6109d3565b73ffffffffffffffffffffffffffffffffffffffff1614610d2957610ced610e4a565b6040517f118cdaa7000000000000000000000000000000000000000000000000000000008152600401610d2091906125b5565b60405180910390fd5b565b600073ffffffffffffffffffffffffffffffffffffffff168473ffffffffffffffffffffffffffffffffffffffff1603610d9d5760006040517f57f447ce000000000000000000000000000000000000000000000000000000008152600401610d9491906125b5565b60405180910390fd5b610dab60008585858561135a565b50505050565b600073ffffffffffffffffffffffffffffffffffffffff168473ffffffffffffffffffffffffffffffffffffffff1603610e235760006040517f57f447ce000000000000000000000000000000000000000000000000000000008152600401610e1a91906125b5565b60405180910390fd5b600080610e30858561140c565b91509150610e4260008784848761135a565b505050505050565b600033905090565b600073ffffffffffffffffffffffffffffffffffffffff168473ffffffffffffffffffffffffffffffffffffffff1603610ec45760006040517f57f447ce000000000000000000000000000000000000000000000000000000008152600401610ebb91906125b5565b60405180910390fd5b600073ffffffffffffffffffffffffffffffffffffffff168573ffffffffffffffffffffffffffffffffffffffff1603610f365760006040517f01a83514000000000000000000000000000000000000000000000000000000008152600401610f2d91906125b5565b60405180910390fd5b610f43858585858561135a565b5050505050565b600060208202602084010151905092915050565b600060208202602084010151905092915050565b600073ffffffffffffffffffffffffffffffffffffffff168373ffffffffffffffffffffffffffffffffffffffff1603610fe45760006040517f01a83514000000000000000000000000000000000000000000000000000000008152600401610fdb91906125b5565b60405180910390fd5b600080610ff1848461140c565b9150915061101285600084846040518060200160405280600081525061135a565b5050505050565b6000600360009054906101000a900473ffffffffffffffffffffffffffffffffffffffff16905081600360006101000a81548173ffffffffffffffffffffffffffffffffffffffff021916908373ffffffffffffffffffffffffffffffffffffffff1602179055508173ffffffffffffffffffffffffffffffffffffffff168173ffffffffffffffffffffffffffffffffffffffff167f8be0079c531659141344cd1fd0a4f28419497f9722a3daafe3b4186f6b6457e060405160405180910390a35050565b600073ffffffffffffffffffffffffffffffffffffffff168273ffffffffffffffffffffffffffffffffffffffff16036111515760006040517fced3e10000000000000000000000000000000000000000000000000000000000815260040161114891906125b5565b60405180910390fd5b80600160008573ffffffffffffffffffffffffffffffffffffffff1673ffffffffffffffffffffffffffffffffffffffff16815260200190815260200160002060008473ffffffffffffffffffffffffffffffffffffffff1673ffffffffffffffffffffffffffffffffffffffff16815260200190815260200160002060006101000a81548160ff0219169083151502179055508173ffffffffffffffffffffffffffffffffffffffff168373ffffffffffffffffffffffffffffffffffffffff167f17307eab39ab6107e8899845ad3d59bd9653f200f220920489ca2b5937696c31836040516112429190611e9b565b60405180910390a3505050565b600073ffffffffffffffffffffffffffffffffffffffff168473ffffffffffffffffffffffffffffffffffffffff16036112c15760006040517f57f447ce0000000000000000000000000000000000000000000000000000000081526004016112b891906125b5565b60405180910390fd5b600073ffffffffffffffffffffffffffffffffffffffff168573ffffffffffffffffffffffffffffffffffffffff16036113335760006040517f01a8351400000000000000000000000000000000000000000000000000000000815260040161132a91906125b5565b60405180910390fd5b600080611340858561140c565b91509150611351878784848761135a565b50505050505050565b6113668585858561143c565b600073ffffffffffffffffffffffffffffffffffffffff168473ffffffffffffffffffffffffffffffffffffffff16146114055760006113a4610e4a565b905060018451036113f45760006113c5600086610f5e90919063ffffffff16565b905060006113dd600086610f5e90919063ffffffff16565b90506113ed83898985858961144e565b5050611403565b611402818787878787611602565b5b505b5050505050565b60608060405191506001825283602083015260408201905060018152826020820152604081016040529250929050565b611448848484846117b6565b50505050565b60008473ffffffffffffffffffffffffffffffffffffffff163b11156115fa578373ffffffffffffffffffffffffffffffffffffffff1663f23a6e6187878686866040518663ffffffff1660e01b81526004016114af959493929190612a31565b6020604051808303816000875af19250505080156114eb57506040513d601f19601f820116820180604052508101906114e89190612aa0565b60015b61156f573d806000811461151b576040519150601f19603f3d011682016040523d82523d6000602084013e611520565b606091505b50600081510361156757846040517f57f447ce00000000000000000000000000000000000000000000000000000000815260040161155e91906125b5565b60405180910390fd5b805181602001fd5b63f23a6e6160e01b7bffffffffffffffffffffffffffffffffffffffffffffffffffffffff1916817bffffffffffffffffffffffffffffffffffffffffffffffffffffffff1916146115f857846040517f57f447ce0000000000000000000000000000000000000000000000000000000081526004016115ef91906125b5565b60405180910390fd5b505b505050505050565b60008473ffffffffffffffffffffffffffffffffffffffff163b11156117ae578373ffffffffffffffffffffffffffffffffffffffff1663bc197c8187878686866040518663ffffffff1660e01b8152600401611663959493929190612acd565b6020604051808303816000875af192505050801561169f57506040513d601f19601f8201168201806040525081019061169c9190612aa0565b60015b611723573d80600081146116cf576040519150601f19603f3d011682016040523d82523d6000602084013e6116d4565b606091505b50600081510361171b57846040517f57f447ce00000000000000000000000000000000000000000000000000000000815260040161171291906125b5565b60405180910390fd5b805181602001fd5b63bc197c8160e01b7bffffffffffffffffffffffffffffffffffffffffffffffffffffffff1916817bffffffffffffffffffffffffffffffffffffffffffffffffffffffff1916146117ac57846040517f57f447ce0000000000000000000000000000000000000000000000000000000081526004016117a391906125b5565b60405180910390fd5b505b505050505050565b6117c284848484611941565b600073ffffffffffffffffffffffffffffffffffffffff168473ffffffffffffffffffffffffffffffffffffffff160361188c576000805b83518110156118705760006118188285610f5e90919063ffffffff16565b905080600460006118328589610f5e90919063ffffffff16565b8152602001908152602001600020600082825461184f9190612b35565b9250508190555080836118629190612b35565b9250508060010190506117fa565b5080600560008282546118839190612b35565b92505081905550505b600073ffffffffffffffffffffffffffffffffffffffff168373ffffffffffffffffffffffffffffffffffffffff160361193b576000805b83518110156119285760006118e28285610f5e90919063ffffffff16565b905080600460006118fc8589610f5e90919063ffffffff16565b8152602001908152602001600020600082825403925050819055508083019250508060010190506118c4565b5080600560008282540392505081905550505b50505050565b805182511461198b57815181516040517f5b0599910000000000000000000000000000000000000000000000000000000081526004016119829291906128ac565b60405180910390fd5b6000611995610e4a565b905060005b8351811015611ba45760006119b88286610f5e90919063ffffffff16565b905060006119cf8386610f5e90919063ffffffff16565b9050600073ffffffffffffffffffffffffffffffffffffffff168873ffffffffffffffffffffffffffffffffffffffff1614611afc57600080600084815260200190815260200160002060008a73ffffffffffffffffffffffffffffffffffffffff1673ffffffffffffffffffffffffffffffffffffffff16815260200190815260200160002054905081811015611aa457888183856040517f03dee4c5000000000000000000000000000000000000000000000000000000008152600401611a9b9493929190612b69565b60405180910390fd5b81810360008085815260200190815260200160002060008b73ffffffffffffffffffffffffffffffffffffffff1673ffffffffffffffffffffffffffffffffffffffff16815260200190815260200160002081905550505b600073ffffffffffffffffffffffffffffffffffffffff168773ffffffffffffffffffffffffffffffffffffffff1614611b97578060008084815260200190815260200160002060008973ffffffffffffffffffffffffffffffffffffffff1673ffffffffffffffffffffffffffffffffffffffff1681526020019081526020016000206000828254611b8f9190612b35565b925050819055505b505080600101905061199a565b506001835103611c63576000611bc4600085610f5e90919063ffffffff16565b90506000611bdc600085610f5e90919063ffffffff16565b90508573ffffffffffffffffffffffffffffffffffffffff168773ffffffffffffffffffffffffffffffffffffffff168473ffffffffffffffffffffffffffffffffffffffff167fc3d58168c5ae7397731d063d5bbf3d657854427343f4c083240f7aacaa2d0f628585604051611c549291906128ac565b60405180910390a45050611ce2565b8373ffffffffffffffffffffffffffffffffffffffff168573ffffffffffffffffffffffffffffffffffffffff168273ffffffffffffffffffffffffffffffffffffffff167f4a39dc06d4c0dbc64b70af90fd698a233a518aa5d07e595d983b8c0526c8f7fb8686604051611cd9929190612bae565b60405180910390a45b5050505050565b6000604051905090565b600080fd5b600080fd5b600073ffffffffffffffffffffffffffffffffffffffff82169050919050565b6000611d2882611cfd565b9050919050565b611d3881611d1d565b8114611d4357600080fd5b50565b600081359050611d5581611d2f565b92915050565b6000819050919050565b611d6e81611d5b565b8114611d7957600080fd5b50565b600081359050611d8b81611d65565b92915050565b60008060408385031215611da857611da7611cf3565b5b6000611db685828601611d46565b9250506020611dc785828601611d7c565b9150509250929050565b611dda81611d5b565b82525050565b6000602082019050611df56000830184611dd1565b92915050565b60007fffffffff0000000000000000000000000000000000000000000000000000000082169050919050565b611e3081611dfb565b8114611e3b57600080fd5b50565b600081359050611e4d81611e27565b92915050565b600060208284031215611e6957611e68611cf3565b5b6000611e7784828501611e3e565b91505092915050565b60008115159050919050565b611e9581611e80565b82525050565b6000602082019050611eb06000830184611e8c565b92915050565b600060208284031215611ecc57611ecb611cf3565b5b6000611eda84828501611d7c565b91505092915050565b600081519050919050565b600082825260208201905092915050565b60005b83811015611f1d578082015181840152602081019050611f02565b60008484015250505050565b6000601f19601f8301169050919050565b6000611f4582611ee3565b611f4f8185611eee565b9350611f5f818560208601611eff565b611f6881611f29565b840191505092915050565b60006020820190508181036000830152611f8d8184611f3a565b905092915050565b600080fd5b7f4e487b7100000000000000000000000000000000000000000000000000000000600052604160045260246000fd5b611fd282611f29565b810181811067ffffffffffffffff82111715611ff157611ff0611f9a565b5b80604052505050565b6000612004611ce9565b90506120108282611fc9565b919050565b600067ffffffffffffffff8211156120305761202f611f9a565b5b602082029050602081019050919050565b600080fd5b600061205961205484612015565b611ffa565b9050808382526020820190506020840283018581111561207c5761207b612041565b5b835b818110156120a557806120918882611d7c565b84526020840193505060208101905061207e565b5050509392505050565b600082601f8301126120c4576120c3611f95565b5b81356120d4848260208601612046565b91505092915050565b600080fd5b600067ffffffffffffffff8211156120fd576120fc611f9a565b5b61210682611f29565b9050602081019050919050565b82818337600083830152505050565b6000612135612130846120e2565b611ffa565b905082815260208101848484011115612151576121506120dd565b5b61215c848285612113565b509392505050565b600082601f83011261217957612178611f95565b5b8135612189848260208601612122565b91505092915050565b600080600080608085870312156121ac576121ab611cf3565b5b60006121ba87828801611d46565b945050602085013567ffffffffffffffff8111156121db576121da611cf8565b5b6121e7878288016120af565b935050604085013567ffffffffffffffff81111561220857612207611cf8565b5b612214878288016120af565b925050606085013567ffffffffffffffff81111561223557612234611cf8565b5b61224187828801612164565b91505092959194509250565b60008060006060848603121561226657612265611cf3565b5b600061227486828701611d7c565b935050602084013567ffffffffffffffff81111561229557612294611cf8565b5b6122a186828701612164565b92505060406122b286828701611d7c565b9150509250925092565b600080600080600060a086880312156122d8576122d7611cf3565b5b60006122e688828901611d46565b95505060206122f788828901611d46565b945050604086013567ffffffffffffffff81111561231857612317611cf8565b5b612324888289016120af565b935050606086013567ffffffffffffffff81111561234557612344611cf8565b5b612351888289016120af565b925050608086013567ffffffffffffffff81111561237257612371611cf8565b5b61237e88828901612164565b9150509295509295909350565b600067ffffffffffffffff8211156123a6576123a5611f9a565b5b602082029050602081019050919050565b60006123ca6123c58461238b565b611ffa565b905080838252602082019050602084028301858111156123ed576123ec612041565b5b835b8181101561241657806124028882611d46565b8452602084019350506020810190506123ef565b5050509392505050565b600082601f83011261243557612434611f95565b5b81356124458482602086016123b7565b91505092915050565b6000806040838503121561246557612464611cf3565b5b600083013567ffffffffffffffff81111561248357612482611cf8565b5b61248f85828601612420565b925050602083013567ffffffffffffffff8111156124b0576124af611cf8565b5b6124bc858286016120af565b9150509250929050565b600081519050919050565b600082825260208201905092915050565b6000819050602082019050919050565b6124fb81611d5b565b82525050565b600061250d83836124f2565b60208301905092915050565b6000602082019050919050565b6000612531826124c6565b61253b81856124d1565b9350612546836124e2565b8060005b8381101561257757815161255e8882612501565b975061256983612519565b92505060018101905061254a565b5085935050505092915050565b6000602082019050818103600083015261259e8184612526565b905092915050565b6125af81611d1d565b82525050565b60006020820190506125ca60008301846125a6565b92915050565b6125d981611e80565b81146125e457600080fd5b50565b6000813590506125f6816125d0565b92915050565b6000806040838503121561261357612612611cf3565b5b600061262185828601611d46565b9250506020612632858286016125e7565b9150509250929050565b6000806040838503121561265357612652611cf3565b5b600061266185828601611d46565b925050602061267285828601611d46565b9150509250929050565b600080600080600060a0868803121561269857612697611cf3565b5b60006126a688828901611d46565b95505060206126b788828901611d46565b94505060406126c888828901611d7c565b93505060606126d988828901611d7c565b925050608086013567ffffffffffffffff8111156126fa576126f9611cf8565b5b61270688828901612164565b9150509295509295909350565b60006020828403121561272957612728611cf3565b5b600061273784828501611d46565b91505092915050565b7f4e487b7100000000000000000000000000000000000000000000000000000000600052602260045260246000fd5b6000600282049050600182168061278757607f821691505b60208210810361279a57612799612740565b5b50919050565b7f416b617261436172626f6e3a204558504952595f504153540000000000000000600082015250565b60006127d6601883611eee565b91506127e1826127a0565b602082019050919050565b60006020820190508181036000830152612805816127c9565b9050919050565b7f4e487b7100000000000000000000000000000000000000000000000000000000600052601160045260246000fd5b600061284682611d5b565b91507fffffffffffffffffffffffffffffffffffffffffffffffffffffffffffffffff82036128785761287761280c565b5b600182019050919050565b600060408201905061289860008301856125a6565b6128a560208301846125a6565b9392505050565b60006040820190506128c16000830185611dd1565b6128ce6020830184611dd1565b9392505050565b7f4e487b7100000000000000000000000000000000000000000000000000000000600052603260045260246000fd5b7f416b617261436172626f6e3a204e4f545f455850495245440000000000000000600082015250565b600061293a601883611eee565b915061294582612904565b602082019050919050565b600060208201905081810360008301526129698161292d565b9050919050565b7f416b617261436172626f6e3a204e4f5f42414c414e4345000000000000000000600082015250565b60006129a6601783611eee565b91506129b182612970565b602082019050919050565b600060208201905081810360008301526129d581612999565b9050919050565b600081519050919050565b600082825260208201905092915050565b6000612a03826129dc565b612a0d81856129e7565b9350612a1d818560208601611eff565b612a2681611f29565b840191505092915050565b600060a082019050612a4660008301886125a6565b612a5360208301876125a6565b612a606040830186611dd1565b612a6d6060830185611dd1565b8181036080830152612a7f81846129f8565b90509695505050505050565b600081519050612a9a81611e27565b92915050565b600060208284031215612ab657612ab5611cf3565b5b6000612ac484828501612a8b565b91505092915050565b600060a082019050612ae260008301886125a6565b612aef60208301876125a6565b8181036040830152612b018186612526565b90508181036060830152612b158185612526565b90508181036080830152612b2981846129f8565b90509695505050505050565b6000612b4082611d5b565b9150612b4b83611d5b565b9250828201905080821115612b6357612b6261280c565b5b92915050565b6000608082019050612b7e60008301876125a6565b612b8b6020830186611dd1565b612b986040830185611dd1565b612ba56060830184611dd1565b95945050505050565b60006040820190508181036000830152612bc88185612526565b90508181036020830152612bdc8184612526565b9050939250505056fea2646970667358221220fb8025bed6d8187757916b7821c51dc432fadaeb511b9e9539bc3787cf5f1e0964736f6c634300081c003368747470733a2f2f616b617261636172626f6e2e617468696368616c2e636f6d2f6170692f746f6b656e2f7b69647d2e6a736f6e",
    "linkReferences": {},
    "deployedLinkReferences": {}
}